:020000040800F2
:100000000050002041050008E1030008E703000854
:10001000ED030008F3030008F903000800000000E6
:10002000000000000000000000000000FF030008C6
:100030000B04000800000000170400082304000857
:100040008905000889050008890500088905000858
:100050008905000889050008890500088905000848
:100060008905000889050008890500088905000838
:100070008905000889050008890500088905000828
:100080008905000889050008890500088905000818
:100090008905000889050008890500088905000808
:1000A00089050008890500088905000889050008F8
:1000B00089050008890500088905000889050008E8
:1000C00089050008890500088905000889050008D8
:1000D00089050008890500088905000889050008C8
:1000E000890500088905000889050008000000004E
:1000F0000000000000000000000000000000000000
:0C01000000000000000000005FF808F1A3
:10010C0010B5054C237833B9044B13B10448AFF345
:10011C0000800123237010BD70000020000000003F
:10012C005023000808B5034B1BB103490348AFF338
:10013C00008008BD0000000074000020502300085F
:10014C0080B483B000AF78604FF06043D3F8803E4A
:10015C0003F00103002B13D04FF06043D3F8003EA3
:10016C0003F00103002B0BD000E000BF4FF0604305
:10017C001B68002BF9D04FF060437A68D2B21A702A
:10018C007B6818460C37BD4680BC704780B586B07E
:10019C0000AFF860B9607A6000237B6109E0BB684E
:1001AC005A1CBA601B781846FFF7CAFF7B690133EB
:1001BC007B617A697B689A42F1DB7B681846183759
:1001CC00BD4680BD80B500AF00F0DAF900F02CF828
:1001DC0000F070F84FF400510E4800F0D7FC0E4BB5
:1001EC001B7819460D4801F0ABFB0B4B1B78013308
:1001FC00DAB2094B1A704FF47A7000F023FA0848FF
:10020C0001F09EFB074B1B689B68184601F084F9B4
:10021C00E0E700BF001001408C00002068230008BC
:10022C007C2300080C00002080B590B000AF07F1D3
:10023C00180328220021184601F09DFA3B1D0022CC
:10024C001A605A609A60DA601A610123BB614FF43C
:10025C008033FB6100233B620123BB6202237B637F
:10026C004FF48033BB634FF4E013FB6307F11803C7
:10027C00184600F0A5FC0346002B01D000F072F8E4
:10028C000F237B600223BB600023FB604FF4806371
:10029C003B6100237B613B1D0221184600F012FFDD
:1002AC000346002B01D000F05DF800BF4037BD467F
:1002BC0080BD000080B588B000AF07F110030022AC
:1002CC001A605A609A60DA60244B9B69234A43F0A7
:1002DC0010039361214B9B6903F01003FB60FB68D7
:1002EC001E4B9B691D4A43F0200393611B4B9B697A
:1002FC0003F02003BB60BB68184B9B69174A43F0A3
:10030C0004039361154B9B6903F004037B607B68CA
:10031C00124B9B69114A43F0080393610F4B9B6985
:10032C0003F008033B603B6800224FF400510C487B
:10033C0000F014FC4FF400533B6101237B6100235C
:10034C00BB610223FB6107F110031946044800F05E
:10035C0081FA00BF2037BD4680BD00BF00100240AF
:10036C000010014080B400AF72B600BFFEE7000081
:10037C0080B485B000AF154B9B69144A43F0010360
:10038C009361124B9B6903F00103BB60BB680F4B7D
:10039C00DB690E4A43F08053D3610C4BDB6903F0ED
:1003AC0080537B607B680A4B5B68FB60FB6823F0C7
:1003BC00E063FB60FB6843F00073FB60044AFB687E
:1003CC00536000BF1437BD4680BC7047001002401C
:1003DC000000014080B400AFFEE780B400AFFEE740
:1003EC0080B400AFFEE780B400AFFEE780B400AF8E
:1003FC00FEE780B400AF00BFBD4680BC704780B440
:10040C0000AF00BFBD4680BC704780B400AF00BFDA
:10041C00BD4680BC704780B500AF00F0F7F800BF58
:10042C0080BD80B586B000AFF860B9607A600023FB
:10043C007B610AE0AFF300800146BB685A1CBA60CE
:10044C00CAB21A707B6901337B617A697B689A4204
:10045C00F0DB7B6818461837BD4680BD80B483B08E
:10046C0000AF78604FF0FF3318460C37BD4680BCA8
:10047C00704780B483B000AF786039603B684FF44C
:10048C0000525A60002318460C37BD4680BC70479A
:10049C0080B483B000AF7860012318460C37BD469A
:1004AC0080BC704780B485B000AFF860B9607A60EA
:1004BC00002318461437BD4680BC704780B586B003
:1004CC0000AF7860144A154BD31A7B617B693B6192
:1004DC00134B1B68002B02D1114B124A1A60104BA4
:1004EC001A687B6813443A699A4207D200F050FFAD
:1004FC0003460C221A604FF0FF3309E0084B1B68CF
:10050C00FB60074B1A687B681344054A1360FB6851
:10051C0018461837BD4680BD00500020000400006E
:10052C0090000020A800002080B400AF00BFBD46A2
:10053C0080BC70470C480D490D4A002302E0D4588A
:10054C00C4500433C4188C42F9D30A4A0A4C002311
:10055C0001E013600432A242FBD3FFF7E5FF01F088
:10056C00E3F8FFF72FFE704700000020700000201A
:10057C004824000870000020A8000020FEE70000BE
:10058C0080B500AF084B1B68074A43F0100313609B
:10059C00032000F02BF90F2000F008F8FFF7E8FE1D
:1005AC000023184680BD00BF0020024080B582B0F9
:1005BC0000AF7860124B1A68124B1B7819464FF437
:1005CC007A73B3FBF1F3B2FBF3F3184600F035F991
:1005DC000346002B01D001230EE07B680F2B0AD8B9
:1005EC00002279684FF0FF3000F00BF9064A7B6867
:1005FC001360002300E0012318460837BD4680BD78
:10060C0000000020080000200400002080B400AF8F
:10061C00054B1B781A46054B1B681344034A1360A1
:10062C0000BFBD4680BC704708000020940000202D
:10063C0080B400AF024B1B681846BD4680BC7047A7
:10064C009400002080B584B000AF7860FFF7F0FF15
:10065C00B8607B68FB60FB68B3F1FF3F05D00A4BC9
:10066C001B781A46FB681344FB6000BFFFF7E0FFE2
:10067C000246BB68D31AFA689A42F7D800BF00BF8B
:10068C001037BD4680BD00BF0800002080B485B087
:10069C0000AF78607B6803F00703FB600C4BDB68F2
:1006AC00BB60BA684FF6FF031340BB60FB681A02CD
:1006BC00BB68134343F0BF6343F40033BB60044A8D
:1006CC00BB68D36000BF1437BD4680BC704700BF09
:1006DC0000ED00E080B400AF044BDB681B0A03F0B4
:1006EC0007031846BD4680BC704700BF00ED00E014
:1006FC0080B483B000AF03463960FB7197F90730C3
:10070C00002B0ADB3B68DAB20C4997F9073012016F
:10071C00D2B20B4483F800230AE03B68DAB20849F2
:10072C00FB7903F00F03043B1201D2B20B441A768F
:10073C0000BF0C37BD4680BC704700BF00E100E035
:10074C0000ED00E080B489B000AFF860B9607A6069
:10075C00FB6803F00703FB61FB69C3F10703042B80
:10076C0028BF0423BB61FB690433062B02D9FB6948
:10077C00033B00E000237B614FF0FF32BB6902FAC0
:10078C0003F3DA43BB681A407B699A404FF0FF31A0
:10079C007B6901FA03F3D9437B680B40134318467A
:1007AC002437BD4680BC704780B582B000AF7860FE
:1007BC007B68013BB3F1807F01D301230FE00A4A30
:1007CC007B68013B53600F214FF0FF30FFF790FF28
:1007DC00054B00229A60044B07221A60002318462E
:1007EC000837BD4680BD00BF10E000E080B582B088
:1007FC0000AF78607868FFF749FF00BF0837BD4647
:10080C0080BD80B586B000AF0346B9607A60FB73DB
:10081C0000237B61FFF75EFF78617A68B9687869BD
:10082C00FFF790FF024697F90F3011461846FFF775
:10083C005FFF00BF1837BD4680BD80B582B000AFEA
:10084C0078607868FFF7B0FF034618460837BD4656
:10085C0080BD000080B48BB000AF7860396000239D
:10086C007B6200233B6269E101227B6A02FA03F39B
:10087C00FB613B681B68FA691340BB61BA69FB6991
:10088C009A4240F058813B685B689A4A93425ED02A
:10089C00984A934275D8984A934258D0964A9342B4
:1008AC006FD8964A934252D0944A934269D8944A4C
:1008BC0093424CD0924A934263D8924A934246D088
:1008CC00904A93425DD8122B2AD8122B59D801A2E8
:1008DC0052F823F05B0900083509000847090008A5
:1008EC00890900088F0900088F0900088F09000882
:1008FC008F0900088F0900088F0900088F0900086C
:10090C008F0900088F0900088F0900088F0900085B
:10091C008F0900088F0900083D09000851090008DB
:10092C00794A934213D02CE03B68DB683B6229E0A8
:10093C003B68DB6804333B6224E03B68DB680833CC
:10094C003B621FE03B68DB680C333B621AE03B68A0
:10095C009B68002B02D104233B6213E03B689B682D
:10096C00012B05D108233B627B68FA691A6109E007
:10097C0008233B627B68FA695A6103E000233B62FF
:10098C0000E000BFBB69FF2B01D87B6801E07B68EE
:10099C0004337B61BB69FF2B02D87B6A9B0002E0AE
:1009AC007B6A083B9B003B617B691A680F213B69A2
:1009BC0001FA03F3DB431A40396A3B6901FA03F38A
:1009CC001A437B691A603B685B6803F08053002B09
:1009DC0000F0B1804D4B9B694C4A43F0010393618D
:1009EC004A4B9B6903F00103BB60BB68484A7B6AB6
:1009FC009B08023352F82330FB607B6A03F003033D
:100A0C009B000F2202FA03F3DB43FA681340FB60EE
:100A1C007B68404A934213D07B683F4A93420DD087
:100A2C007B683E4A934207D07B683D4A934201D192
:100A3C00032306E0042304E0022302E0012300E088
:100A4C0000237A6A02F0030292009340FA6813437F
:100A5C00FB602F497B6A9B080233FA6841F823201C
:100A6C003B685B6803F48033002B06D02D4B1A686F
:100A7C002C49BB6913430B6006E02A4B1A68BB690F
:100A8C00DB43284913400B603B685B6803F400337D
:100A9C00002B06D0234B5A682249BB6913434B6089
:100AAC0006E0204B5A68BB69DB431E4913404B6080
:100ABC003B685B6803F48013002B06D0194B9A68D3
:100ACC001849BB6913438B6006E0164B9A68BB69E7
:100ADC00DB43144913408B603B685B6803F40013E1
:100AEC00002B21D00F4BDA680E49BB691343CB6046
:100AFC0021E000BF00003210000031100000221075
:100B0C000000211000001210000011100010024013
:100B1C000000014000080140000C014000100140A1
:100B2C0000140140000401400B4BDA68BB69DB4345
:100B3C0009491340CB607B6A01337B623B681A68BE
:100B4C007B6A22FA03F3002B7FF48EAE00BF00BF4A
:100B5C002C37BD4680BC70470004014080B483B084
:100B6C0000AF78600B467B8013467B707B78002B44
:100B7C0003D07A887B681A6103E07B881A047B684F
:100B8C001A6100BF0C37BD4680BC704780B485B07D
:100B9C0000AF78600B467B807B68DB68FB607A88F3
:100BAC00FB6813401A04FB68D9437B880B401A433B
:100BBC007B681A6100BF1437BD4680BC70470000CB
:100BCC0080B586B000AF78607B68002B01D1012323
:100BDC0072E27B681B6803F00103002B00F0878036
:100BEC00924B5B6803F00C03042B0CD08F4B5B68AF
:100BFC0003F00C03082B12D18C4B5B6803F480338D
:100C0C00B3F5803F0BD1894B1B6803F40033002BE9
:100C1C006CD07B685B68002B68D101234CE27B684D
:100C2C005B68B3F5803F06D1804B1B687F4A43F469
:100C3C00803313602EE07B685B68002B0CD17B4B00
:100C4C001B687A4A23F480331360784B1B68774A0D
:100C5C0023F4802313601DE07B685B68B3F5A02F41
:100C6C000CD1724B1B68714A43F4802313606F4B99
:100C7C001B686E4A43F4803313600BE06B4B1B68AC
:100C8C006A4A23F480331360684B1B68674A23F469
:100C9C00802313607B685B68002B13D0FFF7C8FCC4
:100CAC00386108E0FFF7C4FC02463B69D31A642B99
:100CBC0001D9032300E25D4B1B6803F40033002BC6
:100CCC00F0D014E0FFF7B4FC386108E0FFF7B0FC9B
:100CDC0002463B69D31A642B01D90323ECE1534B35
:100CEC001B6803F40033002BF0D100E000BF7B68DD
:100CFC001B6803F00203002B63D04C4B5B6803F0C2
:100D0C000C03002B0BD0494B5B6803F00C03082B36
:100D1C001CD1464B5B6803F48033002B16D1434B3C
:100D2C001B6803F00203002B05D07B681B69012BA9
:100D3C0001D00123C0E13D4B1B6823F0F8027B6816
:100D4C005B69DB00394913430B603AE07B681B6934
:100D5C00002B20D0364B01221A60FFF769FC38615A
:100D6C0008E0FFF765FC02463B69D31A022B01D958
:100D7C000323A1E12D4B1B6803F00203002BF0D0E1
:100D8C002A4B1B6823F0F8027B685B69DB00274960
:100D9C0013430B6015E0264B00221A60FFF748FC4A
:100DAC00386108E0FFF744FC02463B69D31A022B7A
:100DBC0001D9032380E11D4B1B6803F00203002BB8
:100DCC00F0D17B681B6803F00803002B3AD07B68DA
:100DDC009B69002B19D0174B01221A60FFF728FCD6
:100DEC00386108E0FFF724FC02463B69D31A022B5A
:100DFC0001D9032360E10D4B5B6A03F00203002B66
:100E0C00F0D0012000F0A6FA1CE00A4B00221A6078
:100E1C00FFF70EFC38610FE0FFF70AFC02463B6956
:100E2C00D31A022B08D9032346E100BF001002405D
:100E3C000000424280044242924B5B6A03F0020380
:100E4C00002BE9D17B681B6803F00403002B00F036
:100E5C00A6800023FB758B4BDB6903F08053002BC2
:100E6C000DD1884BDB69874A43F08053D361854BA6
:100E7C00DB6903F08053BB60BB680123FB75824BBD
:100E8C001B6803F48073002B18D17F4B1B687E4AC0
:100E9C0043F480731360FFF7CBFB386108E0FFF776
:100EAC00C7FB02463B69D31A642B01D9032303E128
:100EBC00754B1B6803F48073002BF0D07B68DB68E8
:100ECC00012B06D16F4B1B6A6E4A43F00103136270
:100EDC002DE07B68DB68002B0CD16A4B1B6A694ADE
:100EEC0023F001031362674B1B6A664A23F0040369
:100EFC0013621CE07B68DB68052B0CD1614B1B6A11
:100F0C00604A43F0040313625E4B1B6A5D4A43F074
:100F1C00010313620BE05B4B1B6A5A4A23F001037B
:100F2C001362584B1B6A574A23F0040313627B6805
:100F3C00DB68002B15D0FFF77BFB38610AE0FFF76D
:100F4C0077FB02463B69D31A41F28832934201D9AE
:100F5C000323B1E04B4B1B6A03F00203002BEED0D2
:100F6C0014E0FFF765FB38610AE0FFF761FB02460E
:100F7C003B69D31A41F28832934201D903239BE097
:100F8C00404B1B6A03F00203002BEED1FB7D012BBF
:100F9C0005D13C4BDB693B4A23F08053D3617B6822
:100FAC00DB69002B00F08780364B5B6803F00C0389
:100FBC00082B61D07B68DB69022B46D1334B0022B6
:100FCC001A60FFF735FB386108E0FFF731FB02468A
:100FDC003B69D31A022B01D903236DE0294B1B6803
:100FEC0003F00073002BF0D17B681B6AB3F5803FD4
:100FFC0008D1244B5B6823F400327B689B68214941
:10100C0013434B601F4B5B6823F474127B68196AA3
:10101C007B685B6A0B431B4913434B601B4B0122E0
:10102C001A60FFF705FB386108E0FFF701FB024689
:10103C003B69D31A022B01D903233DE0114B1B68EA
:10104C0003F00073002BF0D035E0104B00221A6037
:10105C00FFF7EEFA386108E0FFF7EAFA02463B695F
:10106C00D31A022B01D9032326E0064B1B6803F08D
:10107C000073002BF0D11EE07B68DB69012B07D1DC
:10108C00012319E000100240007000406000424251
:10109C000B4B5B68FB60FB6803F480327B681B6A5C
:1010AC009A4206D1FB6803F470127B685B6A9A4221
:1010BC0001D0012300E0002318461837BD4680BD3F
:1010CC000010024080B584B000AF786039607B6856
:1010DC00002B01D10123D0E06A4B1B6803F00703FE
:1010EC003A689A4210D9674B1B6823F0070265498E
:1010FC003B6813430B60634B1B6803F007033A68B0
:10110C009A4201D00123B8E07B681B6803F002030C
:10111C00002B20D07B681B6803F00403002B05D048
:10112C00594B5B68584A43F4E06353607B681B6817
:10113C0003F00803002B05D0534B5B68524A43F471
:10114C0060535360504B5B6823F0F0027B689B68E4
:10115C004D4913434B607B681B6803F00103002B64
:10116C0040D07B685B68012B07D1474B1B6803F4AD
:10117C000033002B15D101237FE07B685B68022BC9
:10118C0007D1414B1B6803F00073002B09D10123DD
:10119C0073E03D4B1B6803F00203002B01D10123CC
:1011AC006BE0394B5B6823F003027B685B68364964
:1011BC0013434B60FFF73CFAF8600AE0FFF738FA8C
:1011CC000246FB68D31A41F28832934201D90323B9
:1011DC0053E02D4B5B6803F00C027B685B689B0053
:1011EC009A42EBD1274B1B6803F007033A689A42EB
:1011FC0010D2244B1B6823F0070222493B6813438F
:10120C000B60204B1B6803F007033A689A4201D02D
:10121C00012332E07B681B6803F00403002B08D029
:10122C00194B5B6823F4E0627B68DB681649134357
:10123C004B607B681B6803F00803002B09D0124B32
:10124C005B6823F460527B681B69DB000E49134317
:10125C004B6000F021F802460B4B5B681B0903F056
:10126C000F030A49CB5C22FA03F3094A1360094BBA
:10127C001B681846FFF79AF9002318461037BD462D
:10128C0080BD00BF002002400010024098230008DF
:10129C00000000200400002090B48AB000AF294B5D
:1012AC003C1D0FCB84E80F0040F201233B80002350
:1012BC00FB610023BB6100237B6200237B61002365
:1012CC003B62214B5B68FB61FB6903F00C03042B55
:1012DC0002D0082B03D02BE01C4B3B622BE0FB69AC
:1012EC009B0C03F00F0328333B4413F8243C7B6125
:1012FC00FB6903F48033002B12D0134B5B685B0C3F
:10130C0003F0010328333B4413F8283CBB617B6991
:10131C000E4A03FB02F2BB69B2FBF3F37B6204E0FF
:10132C007B690B4A02FB03F37B627B6A3B6202E044
:10133C00064B3B6200BF3B6A18462837BD4690BC43
:10134C00704700BF882300080010024000127A008A
:10135C0000093D0080B485B000AF78600A4B1B6873
:10136C000A4AA2FB03235B0A7A6802FB03F3FB60C5
:10137C0000BFFB685A1EFA60002BF9D100BF00BFFA
:10138C001437BD4680BC704700000020D34D62105E
:10139C00014B1868704700BF0C0000208A89F8B513
:1013AC00054610070C4657D44B68002B04DC0B6C1D
:1013BC00002B01DC0020F8BDE66A002EFAD00023D9
:1013CC0012F480522F682B6032D0606DA3895A07BB
:1013DC0005D56368C01A636B0BB1236CC01A00236C
:1013EC000246E66A2846216AB047431CA38906D107
:1013FC0029681D292CD8294ACA40D60728D500228D
:10140C0062602269D904226004D5421C01D12B6888
:10141C0003B96065616B2F600029CBD004F14403E4
:10142C00994202D0284600F0AFF900206063C2E771
:10143C00216A01232846B047411CC7D12B68002BD9
:10144C00C4D01D2B01D0162B01D12F60B2E7A3897C
:10145C0043F04003A381AEE70F69002FAAD0930796
:10146C0018BF00230E6808BF4B69F61B0F608B601A
:10147C00002E9FDD33463A462846216AD4F828C010
:10148C00E047002806DCA3894FF0FF3043F040030F
:10149C00A38190E70744361AEAE700BF0100402019
:1014AC0038B50B6905460C4613B90025284638BDDE
:1014BC0018B183690BB900F099F8144B9C421BD1FD
:1014CC006C68B4F90C30002BEFD0626ED00704D4EA
:1014DC00990502D4A06D00F04CF928462146FFF77F
:1014EC005DFF636E0546DA07E0D4A3899B05DDD466
:1014FC00A06D00F03FF9D9E7054B9C4201D1AC68D7
:10150C00DFE7044B9C4208BFEC68DAE7C82300080D
:10151C00E8230008A8230008014620B9044B05491C
:10152C00186800F0E1B8044B1868FFF7B9BF00BFAA
:10153C0008240008AD1400080C000020002310B58E
:10154C000446C0E90033C0E90433836081814366FB
:10155C00C2818361194608225C3000F00CF9054BFE
:10156C0024626362044BA362044BE362044B236367
:10157C0010BD00BF9D190008BF190008F71900081D
:10158C001B1A0008014900F0AFB800BFAD140008E9
:10159C00682270B54D1E55430E4605F1740100F0DE
:1015AC005BF9044640B10021C0E900160C30A06084
:1015BC0005F1680200F0DFF8204670BD014800F02C
:1015CC00D8B800BF99000020014800F0D3B800BF84
:1015DC0099000020014800F0CCB800BF9A00002010
:1015EC00014800F0C7B800BF9A00002010B50446AF
:1015FC00FFF7F0FFA3691BB1BDE81040FFF7F0BF88
:10160C00C4E912332365134B134A1B68A262A3422D
:10161C0008BF0123204608BFA36100F01FF86060DB
:10162C00204600F01BF8A060204600F017F80022BE
:10163C000421E0606068FFF781FF01220921A068A6
:10164C00FFF77CFF02221221E068FFF777FF0123EE
:10165C00A361D1E70824000891150008F8B50746E6
:10166C00FFF7ACFF1E4B1E68B36913B93046FFF78A
:10167C00BDFF4836D6E90134013B03D533680BB3C3
:10168C003668F7E7B4F90C50D5B9164B04F158008D
:10169C00E360656600F06CF8FFF796FF08222946B8
:1016AC00C4E90155C4E904552560A56104F15C0049
:1016BC0000F061F8C4E90D55C4E912552046F8BD97
:1016CC006834D9E704213846FFF762FF04463060DE
:1016DC000028D5D1FFF778FF0C233B60EEE700BF65
:1016EC00082400080100FFFF2DE9F8430646884650
:1016FC00002700F14804D4E90195B9F1010905D599
:10170C002468002CF7D13846BDE8F883AB89012B4F
:10171C0007D9B5F90E30013303D029463046C047FE
:10172C0007436835E9E7000070B500260C4D0D4CF9
:10173C00641BA410A64209D100F004FE00260A4D39
:10174C000A4C641BA410A64205D170BD55F8043B8D
:10175C0098470136EEE755F8043B98470136F2E717
:10176C0040240008402400084024000844240008B9
:10177C0070477047704703460244934200D170474C
:10178C0003F8011BF9E7000038B50546002940D0E5
:10179C0051F8043C0C1F002BB8BFE41800F070F992
:1017AC001C4A136833B9636014602846BDE838409E
:1017BC0000F06CB9A34208D9206821188B4201BFF4
:1017CC0019685B6809182160EDE71A465B680BB174
:1017DC00A342FAD911685018A0420BD120680144D9
:1017EC00501883421160E0D118685B6801441160A5
:1017FC005360DAE702D90C232B60D6E72068211856
:10180C008B4201BF19685B680918216063605460E2
:10181C00CBE738BD9C00002070B50E4E0C463168ED
:10182C00054611B900F0A4F830602146284600F0B6
:10183C009FF8431C0AD0C41C24F00304A04207D018
:10184C00211A284600F094F8013001D14FF0FF34F2
:10185C00204670BDA00000202DE9F041CD1C25F0E4
:10186C00030508350C2D38BF0C25002D074601DB70
:10187C00A94205D90C2300263B603046BDE8F08117
:10188C002E4E00F0FDF833681C4634BB2946384612
:10189C00FFF7C2FF431C04464DD134682646002E88
:1018AC0040D123683146384604EB030800F060F859
:1018BC0080453AD1216803356D1A25F003050835AA
:1018CC000C2D38BF0C2538462946FFF7A5FF0130F3
:1018DC002BD023682B4423600EE02268521B1ED4AD
:1018EC000B2A16D96119A342256018BF5960636889
:1018FC0008BF316062514B60384604F10B0600F0B2
:10190C00C5F826F00706231DF21AB6D09B1BA35070
:10191C00B3E76268A3420CBF32605A60ECE723461F
:10192C006468B2E734467668B9E70C2338463B6006
:10193C0000F0ACF8A1E72560DEE700BF9C000020BA
:10194C000FB40A4B13B51C6824B1A36913B9204614
:10195C00FFF74CFE05AB2046049AA168019300F0FA
:10196C00C3F802B0BDE8104004B070470C00002072
:10197C0038B50023054D044608462B60FEF79EFD46
:10198C00431C02D12B6803B1236038BDA400002096
:10199C0010B50C46B1F90E1000F06CFB0028ABBF73
:1019AC00636DA3891B1823F48053ACBF6365A381BB
:1019BC0010BD2DE9F0411F468B890546DB050C4611
:1019CC00164605D502230022B1F90E1000F046F898
:1019DC00A389324623F48053A38128463B46B4F9AD
:1019EC000E10BDE8F04100F017B810B50C46B1F977
:1019FC000E1000F033F8431CA38915BF606523F467
:101A0C00805343F48053A38118BFA38110BDB1F957
:101A1C000E1000F013B8000038B504460846114605
:101A2C000022054D2A601A46FEF7B0FB431C02D17A
:101A3C002B6803B1236038BDA400002038B5002307
:101A4C00054D044608462B60FEF708FD431C02D1E9
:101A5C002B6803B1236038BDA400002038B50446C0
:101A6C00084611460022054D2A601A46FEF71AFD5B
:101A7C00431C02D12B6803B1236038BDA4000020A5
:101A8C000148FFF776BE00BF980000200148FFF721
:101A9C0071BE00BF98000020936810B4013B002B6E
:101AAC00936007DA9469A34201DB0A2902D110BCC6
:101ABC0000F0F2BA1368581C10601970084610BC7C
:101ACC007047F8B506460F461446D518AC4201D1FE
:101ADC00002007E03A46304614F8011BFFF7DCFF04
:101AEC00431CF3D1F8BD00002DE9F04F0D46144610
:101AFC00984606469DB018B183690BB9FFF776FD81
:101B0C00894B9D421BD175686B6ED90705D4AB8987
:101B1C009A0502D4A86DFFF72CFEAB891B0701D5E3
:101B2C002B69EBB92946304600F008FBC0B16B6E4F
:101B3C00DC070ED54FF0FF301DB0BDE8F08F7B4BAE
:101B4C009D4201D1B568DFE7794B9D4208BFF5682E
:101B5C00DAE7AB899805EDD4A86DFFF70BFEE9E742
:101B6C000023099320238DF8293030234FF00109ED
:101B7C00CDF80C80DFF8BC818DF82A3023469A46CC
:101B8C0013F8012B0AB1252AF9D1BAEB040B0BD0AF
:101B9C005B46224629463046FFF793FF013000F0A2
:101BAC00AA80099A5A4409929AF80030002B00F046
:101BBC00A28000234FF0FF32CDE905230AF1010A80
:101BCC00049307938DF853301A935446052214F856
:101BDC00011B584800F086FB049AD8B9D10644BFC3
:101BEC0020238DF85330130744BF2B238DF853302B
:101BFC009AF800302A2B15D0544600204FF00A0CCE
:101C0C00079A214611F8013B303B092B4ED9B0B154
:101C1C00079214E0A0EB080309FA03F31343A2465E
:101C2C000493D2E7039B191D1B680391002BBBBFC8
:101C3C005B4242F0020207930793B8BF04922378E9
:101C4C002E2B0CD163782A2B35D1039B02341A1D11
:101C5C001B680392002BB8BF4FF0FF330593DFF8DE
:101C6C00D8A003225046217800F03CFB40B1402321
:101C7C00A0EB0A0003FA00F0049B01340343049325
:101C8C0014F8011B06222D488DF8281000F02AFBB1
:101C9C0000283FD02A4B1BBB039B073323F00703C1
:101CAC0008330393099B3B44099367E70C460120D7
:101CBC000CFB0232A5E700234FF00A0C1946013445
:101CCC000593204610F8012B303A092A03D9002B32
:101CDC00C5D00591C3E7044601230CFB0121F0E7B5
:101CEC0003AB00932A463046164B04A9AFF3008091
:101CFC000746781CD6D16B6ED90705D4AB899A05EB
:101D0C0002D4A86DFFF736FDAB895B063FF512AF29
:101D1C00099811E703AB00932A463046094B04A9F6
:101D2C0000F082F8E4E700BFC8230008E8230008AD
:101D3C00A82300080C24000812240008162400080C
:101D4C0000000000CF1A00082DE9F047164699460E
:101D5C008A680B6907469342B8BF1346336091F803
:101D6C0043200C46DDF820800AB101333360236830
:101D7C00990642BF336802333360256815F00605B7
:101D8C0006D104F1190AE36832689B1AAB4228DCCD
:101D9C0094F84320131E226818BF012392062DD4F9
:101DAC004946384604F14302C047013020D023682D
:101DBC00E56803F00603042B18BF002532684FF0CA
:101DCC000006A36808BFAD1A226908BF25EAE575AD
:101DDC009342C4BF9B1AED181A34B5421AD1002095
:101DEC0008E00123524649463846C047013003D12A
:101DFC004FF0FF30BDE8F0870135C4E73020E11823
:101E0C0081F843005A1C94F845102244023382F89E
:101E1C004310C5E70123224649463846C0470130E6
:101E2C00E6D00136D9E700002DE9FF470F7E914639
:101E3C00782F80460C469A460C9D01F1430207D838
:101E4C00622F0AD8002F00F0D980582F00F0A48000
:101E5C0004F1420584F842703AE0A7F16303152BB4
:101E6C00F6D801A151F823F0CD1E0008E11E0008A0
:101E7C005D1E00085D1E00085D1E00085D1E00084A
:101E8C00E11E00085D1E00085D1E00085D1E0008B6
:101E9C005D1E0008EF1F0008111F0008D11F00086D
:101EAC005D1E00085D1E0008112000085D1E000864
:101EBC00111F00085D1E00085D1E0008D91F0008D8
:101ECC002B681A1D1B682A6004F1420584F8423005
:101EDC000123A4E020682968060601F104030AD551
:101EEC000E682B60002E03DA2D23764284F84330E3
:101EFC000A235E4819E00E6810F0400F2B6018BFE3
:101F0C0036B2EFE72B682068191D2960010601D550
:101F1C001E6802E04606FBD51E886F2F0CBF0823F7
:101F2C000A235248002184F843106568002DA8BF8D
:101F3C002168A560A4BF21F0040121600EB9002D19
:101F4C004DD01546B6FBF3F103FB1167C75D05F8E1
:101F5C00017D3746BB420E46F4D9082B0BD12368C2
:101F6C00DE0708D5236961689942DEBF302305F886
:101F7C00013C05F1FF35521B22614B462146404680
:101F8C00CDF800A003AAFFF7DFFE01304CD14FF0D3
:101F9C00FF3004B0BDE8F087344881F845702968FB
:101FAC00236851F8046B29601D0614D5DF0744BF64
:101FBC0043F0200323601EB9236823F02003236021
:101FCC001023AFE7236843F02003236078232848CD
:101FDC0084F84530E3E7590648BFB6B2E6E7154644
:101FEC00BBE72B682668181D6169286035061B68DD
:101FFC0001D5196002E07006FBD519800023154647
:10200C002361BAE72B6800211A1D2A601D686268DB
:10201C00284600F067F908B1401B606063682361D3
:10202C00002384F84330A8E72A46494640462369F2
:10203C00D0470130ABD023689B0713D4E068039BD7
:10204C009842B8BF1846A4E7012332464946404699
:10205C00D04701309BD00135E36803995B1AAB4242
:10206C00F2DCEBE7002504F11906F5E71D24000866
:10207C002E24000838B50446084611460022054DAA
:10208C002A601A46FEF7CDF9431C02D12B6803B126
:10209C00236038BDA4000020F8B50E461446054652
:1020AC0018B183690BB9FFF7A1FA214B9C422BD1D4
:1020BC006C68A369A360A3891A072FD523696BB336
:1020CC0023692068F6B2C01A63693746834204DC80
:1020DC0021462846FFF7E4F930BBA3680130013BE9
:1020EC00A36023685A1C22601E706369834204D06B
:1020FC00A389DB0706D50A2E04D121462846FFF713
:10210C00CFF988B93846F8BD0A4B9C4201D1AC686E
:10211C00CFE7094B9C4208BFEC68CAE7214628462A
:10212C0000F00CF80028CBD04FF0FF37EAE700BFE7
:10213C00C8230008E8230008A8230008324B70B518
:10214C001D6806460C4625B1AB6913B92846FFF746
:10215C004DFA2E4B9C420FD16C68A389B4F90C201C
:10216C0019072CD4DD0611D40923336042F0400347
:10217C004FF0FF30A3813EE0254B9C4201D1AC686F
:10218C00EBE7244B9C4208BFEC68E6E7580712D5F6
:10219C00616B41B104F14403994202D03046FFF720
:1021AC00F3FA00236363A38923F02403A3810023A0
:1021BC00636023692360A38943F00803A381236927
:1021CC004BB9A38903F42073B3F5007F03D02146E8
:1021DC00304600F047F8A089B4F90C2010F0010348
:1021EC000AD00023A36063695B42A361236943B9EE
:1021FC0010F08000BAD170BD810758BF6369A3602D
:10220C00F4E70020F7E700BF0C000020C82300080B
:10221C00E8230008A823000870B50E46B1F90E108B
:10222C00144600291D4696B008DA0022B6F90C3087
:10223C002A601A0610D44FF480630EE06A4600F050
:10224C005FF80028F1DB019A02F47042A2F500530A
:10225C005A425A412A60EEE740230020236016B010
:10226C0070BD00008B8973B59D0706460C4607D5DB
:10227C0004F14703236023610123636102B070BD45
:10228C006A4601ABFFF7C8FF009905463046FFF7D9
:10229C00E3FA48B9B4F90C309A05EFD423F00303F0
:1022AC0043F00203A381E3E70D4BB362A3892060E3
:1022BC0043F08003A381009B20616361019B5BB1B0
:1022CC003046B4F90E1000F02DF828B1A38923F094
:1022DC00030343F00103A381A0890543A581CDE746
:1022EC0091150008034610B5C9B202449342184632
:1022FC0001D1002003E0047801338C42F6D110BDEB
:10230C0038B50023064D0446084611462B60FEF7EF
:10231C00B0F8431C02D12B6803B1236038BD00BF59
:10232C00A400002038B50023054D044608462B6058
:10233C00FEF7AEF8431C02D12B6803B1236038BD05
:10234C00A4000020F8B500BFF8BC08BC9E4670473E
:0C235C00F8B500BFF8BC08BC9E467047F6
:1023680048656C6C6F20576F726C64203D20256443
:102378000A00000049206C6F766520796F7521008E
:1023880002030405060708090A0B0C0D0E0F1010AE
:10239800000000000000000001020304060708090D
:1023A8000000000000000000000000000000000025
:1023B8000000000000000000000000000000000015
:1023C8000000000000000000000000000000000005
:1023D80000000000000000000000000000000000F5
:1023E80000000000000000000000000000000000E5
:1023F80000000000000000000000000000000000D5
:1024080010000020232D302B2000686C4C006566DE
:10241800674546470030313233343536373839412D
:102428004243444546003031323334353637383943
:08243800616263646566000047
:04244000310100085E
:042444000D0100087E
:102448000024F4001000000001000000100000202B
:1024580000000000C8230008E8230008A82300089B
:102468000000000000000000000000000000000064
:102478000000000000000000000000000000000054
:102488000000000000000000000000000000000044
:102498000000000000000000000000000000000034
:1024A8000000000000000000000000000000000024
:0400000508000541A9
:00000001FF
